{
  "_format": "hh-sol-artifact-1",
  "contractName": "StudyCoinToken",
  "sourceName": "contracts/token.sol",
  "abi": [
    {
      "inputs": [],
      "stateMutability": "nonpayable",
      "type": "constructor"
    },
    {
      "anonymous": false,
      "inputs": [
        {
          "indexed": true,
          "internalType": "address",
          "name": "owner",
          "type": "address"
        },
        {
          "indexed": true,
          "internalType": "address",
          "name": "spender",
          "type": "address"
        },
        {
          "indexed": false,
          "internalType": "uint256",
          "name": "value",
          "type": "uint256"
        }
      ],
      "name": "Approval",
      "type": "event"
    },
    {
      "anonymous": false,
      "inputs": [
        {
          "indexed": true,
          "internalType": "address",
          "name": "from",
          "type": "address"
        },
        {
          "indexed": true,
          "internalType": "address",
          "name": "to",
          "type": "address"
        },
        {
          "indexed": false,
          "internalType": "uint256",
          "name": "value",
          "type": "uint256"
        }
      ],
      "name": "Transfer",
      "type": "event"
    },
    {
      "inputs": [
        {
          "internalType": "address payable",
          "name": "recipient",
          "type": "address"
        },
        {
          "internalType": "uint256",
          "name": "amount",
          "type": "uint256"
        }
      ],
      "name": "add",
      "outputs": [],
      "stateMutability": "payable",
      "type": "function"
    },
    {
      "inputs": [
        {
          "internalType": "address",
          "name": "owner",
          "type": "address"
        },
        {
          "internalType": "address",
          "name": "spender",
          "type": "address"
        }
      ],
      "name": "allowance",
      "outputs": [
        {
          "internalType": "uint256",
          "name": "",
          "type": "uint256"
        }
      ],
      "stateMutability": "view",
      "type": "function"
    },
    {
      "inputs": [
        {
          "internalType": "address",
          "name": "spender",
          "type": "address"
        },
        {
          "internalType": "uint256",
          "name": "amount",
          "type": "uint256"
        }
      ],
      "name": "approve",
      "outputs": [
        {
          "internalType": "bool",
          "name": "",
          "type": "bool"
        }
      ],
      "stateMutability": "nonpayable",
      "type": "function"
    },
    {
      "inputs": [
        {
          "internalType": "address",
          "name": "account",
          "type": "address"
        }
      ],
      "name": "balanceOf",
      "outputs": [
        {
          "internalType": "uint256",
          "name": "",
          "type": "uint256"
        }
      ],
      "stateMutability": "view",
      "type": "function"
    },
    {
      "inputs": [],
      "name": "decimals",
      "outputs": [
        {
          "internalType": "uint8",
          "name": "",
          "type": "uint8"
        }
      ],
      "stateMutability": "view",
      "type": "function"
    },
    {
      "inputs": [
        {
          "internalType": "address",
          "name": "spender",
          "type": "address"
        },
        {
          "internalType": "uint256",
          "name": "subtractedValue",
          "type": "uint256"
        }
      ],
      "name": "decreaseAllowance",
      "outputs": [
        {
          "internalType": "bool",
          "name": "",
          "type": "bool"
        }
      ],
      "stateMutability": "nonpayable",
      "type": "function"
    },
    {
      "inputs": [
        {
          "internalType": "address",
          "name": "spender",
          "type": "address"
        },
        {
          "internalType": "uint256",
          "name": "addedValue",
          "type": "uint256"
        }
      ],
      "name": "increaseAllowance",
      "outputs": [
        {
          "internalType": "bool",
          "name": "",
          "type": "bool"
        }
      ],
      "stateMutability": "nonpayable",
      "type": "function"
    },
    {
      "inputs": [],
      "name": "name",
      "outputs": [
        {
          "internalType": "string",
          "name": "",
          "type": "string"
        }
      ],
      "stateMutability": "view",
      "type": "function"
    },
    {
      "inputs": [],
      "name": "symbol",
      "outputs": [
        {
          "internalType": "string",
          "name": "",
          "type": "string"
        }
      ],
      "stateMutability": "view",
      "type": "function"
    },
    {
      "inputs": [],
      "name": "totalSupply",
      "outputs": [
        {
          "internalType": "uint256",
          "name": "",
          "type": "uint256"
        }
      ],
      "stateMutability": "view",
      "type": "function"
    },
    {
      "inputs": [
        {
          "internalType": "address",
          "name": "to",
          "type": "address"
        },
        {
          "internalType": "uint256",
          "name": "amount",
          "type": "uint256"
        }
      ],
      "name": "transfer",
      "outputs": [
        {
          "internalType": "bool",
          "name": "",
          "type": "bool"
        }
      ],
      "stateMutability": "nonpayable",
      "type": "function"
    },
    {
      "inputs": [
        {
          "internalType": "address",
          "name": "from",
          "type": "address"
        },
        {
          "internalType": "address",
          "name": "to",
          "type": "address"
        },
        {
          "internalType": "uint256",
          "name": "amount",
          "type": "uint256"
        }
      ],
      "name": "transferFrom",
      "outputs": [
        {
          "internalType": "bool",
          "name": "",
          "type": "bool"
        }
      ],
      "stateMutability": "nonpayable",
      "type": "function"
    }
  ],
  "bytecode": "0x60806040523480156200001157600080fd5b506040518060400160405280600981526020017f5374756479436f696e00000000000000000000000000000000000000000000008152506040518060400160405280600381526020017f535443000000000000000000000000000000000000000000000000000000000081525081600390816200008f9190620004f7565b508060049081620000a19190620004f7565b5050506000620000b6620000fd60201b60201c565b600a620000c491906200076e565b620f4240620000d49190620007bf565b9050620000f633601483620000ea91906200080a565b6200010660201b60201c565b5062000931565b60006012905090565b600073ffffffffffffffffffffffffffffffffffffffff168273ffffffffffffffffffffffffffffffffffffffff160362000178576040517f08c379a00000000000000000000000000000000000000000000000000000000081526004016200016f90620008a6565b60405180910390fd5b6200018c600083836200027360201b60201c565b8060026000828254620001a09190620008c8565b92505081905550806000808473ffffffffffffffffffffffffffffffffffffffff1673ffffffffffffffffffffffffffffffffffffffff168152602001908152602001600020600082825401925050819055508173ffffffffffffffffffffffffffffffffffffffff16600073ffffffffffffffffffffffffffffffffffffffff167fddf252ad1be2c89b69c2b068fc378daa952ba7f163c4a11628f55a4df523b3ef8360405162000253919062000914565b60405180910390a36200026f600083836200027860201b60201c565b5050565b505050565b505050565b600081519050919050565b7f4e487b7100000000000000000000000000000000000000000000000000000000600052604160045260246000fd5b7f4e487b7100000000000000000000000000000000000000000000000000000000600052602260045260246000fd5b60006002820490506001821680620002ff57607f821691505b602082108103620003155762000314620002b7565b5b50919050565b60008190508160005260206000209050919050565b60006020601f8301049050919050565b600082821b905092915050565b6000600883026200037f7fffffffffffffffffffffffffffffffffffffffffffffffffffffffffffffffff8262000340565b6200038b868362000340565b95508019841693508086168417925050509392505050565b6000819050919050565b6000819050919050565b6000620003d8620003d2620003cc84620003a3565b620003ad565b620003a3565b9050919050565b6000819050919050565b620003f483620003b7565b6200040c6200040382620003df565b8484546200034d565b825550505050565b600090565b6200042362000414565b62000430818484620003e9565b505050565b5b8181101562000458576200044c60008262000419565b60018101905062000436565b5050565b601f821115620004a75762000471816200031b565b6200047c8462000330565b810160208510156200048c578190505b620004a46200049b8562000330565b83018262000435565b50505b505050565b600082821c905092915050565b6000620004cc60001984600802620004ac565b1980831691505092915050565b6000620004e78383620004b9565b9150826002028217905092915050565b62000502826200027d565b67ffffffffffffffff8111156200051e576200051d62000288565b5b6200052a8254620002e6565b620005378282856200045c565b600060209050601f8311600181146200056f57600084156200055a578287015190505b620005668582620004d9565b865550620005d6565b601f1984166200057f866200031b565b60005b82811015620005a95784890151825560018201915060208501945060208101905062000582565b86831015620005c95784890151620005c5601f891682620004b9565b8355505b6001600288020188555050505b505050505050565b7f4e487b7100000000000000000000000000000000000000000000000000000000600052601160045260246000fd5b60008160011c9050919050565b6000808291508390505b60018511156200066c57808604811115620006445762000643620005de565b5b6001851615620006545780820291505b808102905062000664856200060d565b945062000624565b94509492505050565b6000826200068757600190506200075a565b816200069757600090506200075a565b8160018114620006b05760028114620006bb57620006f1565b60019150506200075a565b60ff841115620006d057620006cf620005de565b5b8360020a915084821115620006ea57620006e9620005de565b5b506200075a565b5060208310610133831016604e8410600b84101617156200072b5782820a905083811115620007255762000724620005de565b5b6200075a565b6200073a84848460016200061a565b92509050818404811115620007545762000753620005de565b5b81810290505b9392505050565b600060ff82169050919050565b60006200077b82620003a3565b9150620007888362000761565b9250620007b77fffffffffffffffffffffffffffffffffffffffffffffffffffffffffffffffff848462000675565b905092915050565b6000620007cc82620003a3565b9150620007d983620003a3565b9250828202620007e981620003a3565b91508282048414831517620008035762000802620005de565b5b5092915050565b60006200081782620003a3565b91506200082483620003a3565b92508282039050818111156200083f576200083e620005de565b5b92915050565b600082825260208201905092915050565b7f45524332303a206d696e7420746f20746865207a65726f206164647265737300600082015250565b60006200088e601f8362000845565b91506200089b8262000856565b602082019050919050565b60006020820190508181036000830152620008c1816200087f565b9050919050565b6000620008d582620003a3565b9150620008e283620003a3565b9250828201905080821115620008fd57620008fc620005de565b5b92915050565b6200090e81620003a3565b82525050565b60006020820190506200092b600083018462000903565b92915050565b61152680620009416000396000f3fe6080604052600436106100a75760003560e01c806370a082311161006457806370a08231146101e457806395d89b4114610221578063a457c2d71461024c578063a9059cbb14610289578063dd62ed3e146102c6578063f5d82b6b14610303576100a7565b806306fdde03146100ac578063095ea7b3146100d757806318160ddd1461011457806323b872dd1461013f578063313ce5671461017c57806339509351146101a7575b600080fd5b3480156100b857600080fd5b506100c161031f565b6040516100ce9190610d19565b60405180910390f35b3480156100e357600080fd5b506100fe60048036038101906100f99190610dd4565b6103b1565b60405161010b9190610e2f565b60405180910390f35b34801561012057600080fd5b506101296103d4565b6040516101369190610e59565b60405180910390f35b34801561014b57600080fd5b5061016660048036038101906101619190610e74565b6103de565b6040516101739190610e2f565b60405180910390f35b34801561018857600080fd5b5061019161040d565b60405161019e9190610ee3565b60405180910390f35b3480156101b357600080fd5b506101ce60048036038101906101c99190610dd4565b610416565b6040516101db9190610e2f565b60405180910390f35b3480156101f057600080fd5b5061020b60048036038101906102069190610efe565b61044d565b6040516102189190610e59565b60405180910390f35b34801561022d57600080fd5b50610236610495565b6040516102439190610d19565b60405180910390f35b34801561025857600080fd5b50610273600480360381019061026e9190610dd4565b610527565b6040516102809190610e2f565b60405180910390f35b34801561029557600080fd5b506102b060048036038101906102ab9190610dd4565b61059e565b6040516102bd9190610e2f565b60405180910390f35b3480156102d257600080fd5b506102ed60048036038101906102e89190610f2b565b6105c1565b6040516102fa9190610e59565b60405180910390f35b61031d60048036038101906103189190610fa9565b610648565b005b60606003805461032e90611018565b80601f016020809104026020016040519081016040528092919081815260200182805461035a90611018565b80156103a75780601f1061037c576101008083540402835291602001916103a7565b820191906000526020600020905b81548152906001019060200180831161038a57829003601f168201915b5050505050905090565b6000806103bc610656565b90506103c981858561065e565b600191505092915050565b6000600254905090565b6000806103e9610656565b90506103f6858285610827565b6104018585856108b3565b60019150509392505050565b60006012905090565b600080610421610656565b905061044281858561043385896105c1565b61043d9190611078565b61065e565b600191505092915050565b60008060008373ffffffffffffffffffffffffffffffffffffffff1673ffffffffffffffffffffffffffffffffffffffff168152602001908152602001600020549050919050565b6060600480546104a490611018565b80601f01602080910402602001604051908101604052809291908181526020018280546104d090611018565b801561051d5780601f106104f25761010080835404028352916020019161051d565b820191906000526020600020905b81548152906001019060200180831161050057829003601f168201915b5050505050905090565b600080610532610656565b9050600061054082866105c1565b905083811015610585576040517f08c379a000000000000000000000000000000000000000000000000000000000815260040161057c9061111e565b60405180910390fd5b610592828686840361065e565b60019250505092915050565b6000806105a9610656565b90506105b68185856108b3565b600191505092915050565b6000600160008473ffffffffffffffffffffffffffffffffffffffff1673ffffffffffffffffffffffffffffffffffffffff16815260200190815260200160002060008373ffffffffffffffffffffffffffffffffffffffff1673ffffffffffffffffffffffffffffffffffffffff16815260200190815260200160002054905092915050565b6106528282610b29565b5050565b600033905090565b600073ffffffffffffffffffffffffffffffffffffffff168373ffffffffffffffffffffffffffffffffffffffff16036106cd576040517f08c379a00000000000000000000000000000000000000000000000000000000081526004016106c4906111b0565b60405180910390fd5b600073ffffffffffffffffffffffffffffffffffffffff168273ffffffffffffffffffffffffffffffffffffffff160361073c576040517f08c379a000000000000000000000000000000000000000000000000000000000815260040161073390611242565b60405180910390fd5b80600160008573ffffffffffffffffffffffffffffffffffffffff1673ffffffffffffffffffffffffffffffffffffffff16815260200190815260200160002060008473ffffffffffffffffffffffffffffffffffffffff1673ffffffffffffffffffffffffffffffffffffffff168152602001908152602001600020819055508173ffffffffffffffffffffffffffffffffffffffff168373ffffffffffffffffffffffffffffffffffffffff167f8c5be1e5ebec7d5bd14f71427d1e84f3dd0314c0f7b2291e5b200ac8c7c3b9258360405161081a9190610e59565b60405180910390a3505050565b600061083384846105c1565b90507fffffffffffffffffffffffffffffffffffffffffffffffffffffffffffffffff81146108ad578181101561089f576040517f08c379a0000000000000000000000000000000000000000000000000000000008152600401610896906112ae565b60405180910390fd5b6108ac848484840361065e565b5b50505050565b600073ffffffffffffffffffffffffffffffffffffffff168373ffffffffffffffffffffffffffffffffffffffff1603610922576040517f08c379a000000000000000000000000000000000000000000000000000000000815260040161091990611340565b60405180910390fd5b600073ffffffffffffffffffffffffffffffffffffffff168273ffffffffffffffffffffffffffffffffffffffff1603610991576040517f08c379a0000000000000000000000000000000000000000000000000000000008152600401610988906113d2565b60405180910390fd5b61099c838383610c7f565b60008060008573ffffffffffffffffffffffffffffffffffffffff1673ffffffffffffffffffffffffffffffffffffffff16815260200190815260200160002054905081811015610a22576040517f08c379a0000000000000000000000000000000000000000000000000000000008152600401610a1990611464565b60405180910390fd5b8181036000808673ffffffffffffffffffffffffffffffffffffffff1673ffffffffffffffffffffffffffffffffffffffff16815260200190815260200160002081905550816000808573ffffffffffffffffffffffffffffffffffffffff1673ffffffffffffffffffffffffffffffffffffffff168152602001908152602001600020600082825401925050819055508273ffffffffffffffffffffffffffffffffffffffff168473ffffffffffffffffffffffffffffffffffffffff167fddf252ad1be2c89b69c2b068fc378daa952ba7f163c4a11628f55a4df523b3ef84604051610b109190610e59565b60405180910390a3610b23848484610c84565b50505050565b600073ffffffffffffffffffffffffffffffffffffffff168273ffffffffffffffffffffffffffffffffffffffff1603610b98576040517f08c379a0000000000000000000000000000000000000000000000000000000008152600401610b8f906114d0565b60405180910390fd5b610ba460008383610c7f565b8060026000828254610bb69190611078565b92505081905550806000808473ffffffffffffffffffffffffffffffffffffffff1673ffffffffffffffffffffffffffffffffffffffff168152602001908152602001600020600082825401925050819055508173ffffffffffffffffffffffffffffffffffffffff16600073ffffffffffffffffffffffffffffffffffffffff167fddf252ad1be2c89b69c2b068fc378daa952ba7f163c4a11628f55a4df523b3ef83604051610c679190610e59565b60405180910390a3610c7b60008383610c84565b5050565b505050565b505050565b600081519050919050565b600082825260208201905092915050565b60005b83811015610cc3578082015181840152602081019050610ca8565b60008484015250505050565b6000601f19601f8301169050919050565b6000610ceb82610c89565b610cf58185610c94565b9350610d05818560208601610ca5565b610d0e81610ccf565b840191505092915050565b60006020820190508181036000830152610d338184610ce0565b905092915050565b600080fd5b600073ffffffffffffffffffffffffffffffffffffffff82169050919050565b6000610d6b82610d40565b9050919050565b610d7b81610d60565b8114610d8657600080fd5b50565b600081359050610d9881610d72565b92915050565b6000819050919050565b610db181610d9e565b8114610dbc57600080fd5b50565b600081359050610dce81610da8565b92915050565b60008060408385031215610deb57610dea610d3b565b5b6000610df985828601610d89565b9250506020610e0a85828601610dbf565b9150509250929050565b60008115159050919050565b610e2981610e14565b82525050565b6000602082019050610e446000830184610e20565b92915050565b610e5381610d9e565b82525050565b6000602082019050610e6e6000830184610e4a565b92915050565b600080600060608486031215610e8d57610e8c610d3b565b5b6000610e9b86828701610d89565b9350506020610eac86828701610d89565b9250506040610ebd86828701610dbf565b9150509250925092565b600060ff82169050919050565b610edd81610ec7565b82525050565b6000602082019050610ef86000830184610ed4565b92915050565b600060208284031215610f1457610f13610d3b565b5b6000610f2284828501610d89565b91505092915050565b60008060408385031215610f4257610f41610d3b565b5b6000610f5085828601610d89565b9250506020610f6185828601610d89565b9150509250929050565b6000610f7682610d40565b9050919050565b610f8681610f6b565b8114610f9157600080fd5b50565b600081359050610fa381610f7d565b92915050565b60008060408385031215610fc057610fbf610d3b565b5b6000610fce85828601610f94565b9250506020610fdf85828601610dbf565b9150509250929050565b7f4e487b7100000000000000000000000000000000000000000000000000000000600052602260045260246000fd5b6000600282049050600182168061103057607f821691505b60208210810361104357611042610fe9565b5b50919050565b7f4e487b7100000000000000000000000000000000000000000000000000000000600052601160045260246000fd5b600061108382610d9e565b915061108e83610d9e565b92508282019050808211156110a6576110a5611049565b5b92915050565b7f45524332303a2064656372656173656420616c6c6f77616e63652062656c6f7760008201527f207a65726f000000000000000000000000000000000000000000000000000000602082015250565b6000611108602583610c94565b9150611113826110ac565b604082019050919050565b60006020820190508181036000830152611137816110fb565b9050919050565b7f45524332303a20617070726f76652066726f6d20746865207a65726f2061646460008201527f7265737300000000000000000000000000000000000000000000000000000000602082015250565b600061119a602483610c94565b91506111a58261113e565b604082019050919050565b600060208201905081810360008301526111c98161118d565b9050919050565b7f45524332303a20617070726f766520746f20746865207a65726f20616464726560008201527f7373000000000000000000000000000000000000000000000000000000000000602082015250565b600061122c602283610c94565b9150611237826111d0565b604082019050919050565b6000602082019050818103600083015261125b8161121f565b9050919050565b7f45524332303a20696e73756666696369656e7420616c6c6f77616e6365000000600082015250565b6000611298601d83610c94565b91506112a382611262565b602082019050919050565b600060208201905081810360008301526112c78161128b565b9050919050565b7f45524332303a207472616e736665722066726f6d20746865207a65726f20616460008201527f6472657373000000000000000000000000000000000000000000000000000000602082015250565b600061132a602583610c94565b9150611335826112ce565b604082019050919050565b600060208201905081810360008301526113598161131d565b9050919050565b7f45524332303a207472616e7366657220746f20746865207a65726f206164647260008201527f6573730000000000000000000000000000000000000000000000000000000000602082015250565b60006113bc602383610c94565b91506113c782611360565b604082019050919050565b600060208201905081810360008301526113eb816113af565b9050919050565b7f45524332303a207472616e7366657220616d6f756e742065786365656473206260008201527f616c616e63650000000000000000000000000000000000000000000000000000602082015250565b600061144e602683610c94565b9150611459826113f2565b604082019050919050565b6000602082019050818103600083015261147d81611441565b9050919050565b7f45524332303a206d696e7420746f20746865207a65726f206164647265737300600082015250565b60006114ba601f83610c94565b91506114c582611484565b602082019050919050565b600060208201905081810360008301526114e9816114ad565b905091905056fea264697066735822122010f04383a94d20393be0b297b25a229f24eea110287bc2b05c6b49293045b7b364736f6c63430008120033",
  "linkReferences": {},
  "deployedLinkReferences": {}
}